:100000000C9463000C948B000C948B000C94CD0327
:100010000C94CD030C94CD030C948B000C948B00AA
:100020000C948B000C948B000C948B000C948B0024
:100030000C948B000C948B000C948B000C948B0014
:100040000C942B030C948B000C949B030C94750361
:100050000C948B000C948B000C948B000C948B00F4
:100060000C948B000C948B000000000024002700EF
:100070002A0000000008000201000003040700003D
:1000800000000000000000000000230026002900FE
:1000900000000000250028002B00040404040404D0
:1000A0000404020202020202030303030303010227
:1000B00004081020408001020408102001020408F6
:1000C000102045045B0711241FBECFEFD8E0DEBF30
:1000D000CDBF11E0A0E0B1E0E4E1FFE002C0059097
:1000E0000D92AC32B107D9F722E0ACE2B1E001C029
:1000F0001D92A633B207E1F710E0C2E6D0E004C0DB
:100100002197FE010E947707C136D107C9F70E94E7
:10011000F0040C947D070C94000090E0FC01EE5874
:10012000FF4F2491FC01E255FF4F3491FC01E6564C
:10013000FF4FE491EE23C9F0222339F0233001F17F
:10014000A8F4213019F1223029F1F0E0EE0FFF1F61
:10015000E057FF4FA591B4918FB7F894EC916111DE
:1001600026C030953E233C938FBF08952730A9F0D9
:100170002830C9F0243049F7809180008F7D03C07A
:10018000809180008F7780938000DFCF84B58F7758
:1001900084BDDBCF84B58F7DFBCF8091B0008F779E
:1001A0008093B000D2CF8091B0008F7DF9CF3E2BED
:1001B000DACFCF93DF9390E0FC01E255FF4F24911B
:1001C00086569F4FFC0184918823D1F090E0880FE0
:1001D000991FFC01E859FF4FA591B491FC01E0572C
:1001E000FF4FC591D49161110EC09FB7F8948C91C7
:1001F000E22FE0958E238C932881E223E8839FBF32
:10020000DF91CF9108958FB7F894EC91E22BEC93A6
:100210008FBFF6CF1F93CF93DF93182FEB0161E0D1
:100220000E94D900209739F460E0812FDF91CF91AF
:100230001F910C948D00CF3FD10511F461E0F5CFF3
:10024000E12FF0E0EE58FF4FE491E33031F140F45C
:10025000E130B1F0E230E1F0C038D1057CF7E4CF15
:10026000E73029F1E83059F1E430B1F780918000AE
:10027000806280938000D0938B00C0938A0004C07A
:1002800084B5806884BDC7BDDF91CF911F9108956B
:1002900084B5806284BDC8BDF7CF8091800080683E
:1002A00080938000D0938900C0938800EDCF809127
:1002B000B00080688093B000C093B300E5CF809118
:1002C000B00080628093B000C093B400DDCFAF92E5
:1002D000BF92CF92DF92EF92FF920F931F93CF9333
:1002E000DF936C017B018B01040F151FEB015E0195
:1002F000AE18BF08C017D10759F06991D601ED912A
:10030000FC910190F081E02DC6010995892B79F7C8
:10031000C501DF91CF911F910F91FF90EF90DF907A
:10032000CF90BF90AF900895FC01538D448D252F41
:1003300030E0842F90E0821B930B541710F0CF967F
:10034000089501970895FC01918D828D981761F0B1
:10035000A28DAE0FBF2FB11D5D968C91928D9F5FC8
:100360009F73928F90E008958FEF9FEF0895FC01A7
:10037000918D828D981731F0828DE80FF11D858D5A
:1003800090E008958FEF9FEF0895FC01918D228DED
:10039000892F90E0805C9F4F821B91098F73992772
:1003A00008958AE791E00E94C50121E0892B09F4B4
:1003B00020E0822F089580E090E0892B29F00E94B0
:1003C000D10181110C9400000895FC01A48DA80FA7
:1003D000B92FB11DA35ABF4F2C91848D90E0019687
:1003E0008F739927848FA689B7892C93A089B189A7
:1003F0008C91837080648C93938D848D981306C048
:100400000288F389E02D80818F7D80830895EF92AB
:10041000FF920F931F93CF93DF93EC0181E0888FBE
:100420009B8D8C8D98131AC0E889F989808185FF8E
:1004300015C09FB7F894EE89FF896083E889F98930
:1004400080818370806480839FBF81E090E0DF9132
:10045000CF911F910F91FF90EF900895F62E0B8D85
:1004600010E00F5F1F4F0F731127E02E8C8D8E1140
:100470000CC00FB607FCFACFE889F989808185FFA7
:10048000F5CFCE010E94E501F1CFEB8DEC0FFD2FF2
:10049000F11DE35AFF4FF0829FB7F8940B8FEA8962
:1004A000FB8980818062CFCFCF93DF93EC01888D71
:1004B0008823B9F0AA89BB89E889F9898C9185FDDF
:1004C00003C0808186FD0DC00FB607FCF7CF8C916D
:1004D00085FFF2CF808185FFEDCFCE010E94E5013F
:1004E000E9CFDF91CF91089520916E0130916F0196
:1004F0002817390771F490916C0180916D0198175C
:1005000041F0E0916C01F0E0E45DFE4F808190E00D
:1005100008958FEF9FEF08950895EF92FF920F9344
:100520001F93CF93DF93DC015C96ED90FC905D9779
:10053000E114F10479F481E090E013969C938E939A
:10054000129790E080E0DF91CF911F910F91FF9083
:10055000EF9008955196ED91FC91529750968C91A1
:100560005097982F90950FB75E962C915E97122F0B
:10057000127021FD6095F8942081112319F1282B28
:100580002083E7012197F1F728E0462F50E03081E2
:1005900060FF1AC0382B3083E7012197F1F7BA01C9
:1005A00075956795215089F7112381F08081892302
:1005B00080830FBF5C968D919C910197F1F781E04C
:1005C00090E0C1CF2923DCCF3923E5CF9081892B5F
:1005D000EFCF20916E0130916F012817390761F438
:1005E00080916D0120916C0190E0805C9F4F821B97
:1005F00091098F739927089590E080E008952091E4
:100600006E0130916F0128173907B9F490916C0190
:1006100080916D01981789F0E0916C01F0E0E45D44
:10062000FE4F808120916C0130E02F5F3F4F2F7390
:10063000332720936C0190E008958FEF9FEF08958A
:1006400090E080E0089542E050E066E271E08AE7E1
:1006500091E00C9467011F920F920FB60F92112434
:100660002F933F938F939F93AF93BF938091760186
:1006700090917701A0917801B09179013091750145
:1006800023E0230F2D3758F50196A11DB11D2093AE
:1006900075018093760190937701A0937801B093D0
:1006A00079018091710190917201A0917301B091D3
:1006B00074010196A11DB11D809371019093720187
:1006C000A0937301B0937401BF91AF919F918F91EB
:1006D0003F912F910F900FBE0F901F90189526E815
:1006E000230F0296A11DB11DD2CF1F920F920FB6FC
:1006F0000F9211242F933F934F935F936F937F93A8
:100700008F939F93AF93BF93EF93FF938AE791E00B
:100710000E94E501FF91EF91BF91AF919F918F9161
:100720007F916F915F914F913F912F910F900FBEED
:100730000F901F9018951F920F920FB60F921124D1
:100740002F938F939F93EF93FF93E0918A01F09102
:100750008B018081E0919001F091910182FD1BC09D
:100760009081809193018F5F8F7320919401821704
:1007700041F0E0919301F0E0E658FE4F958F8093B1
:100780009301FF91EF919F918F912F910F900FBE49
:100790000F901F9018958081F4CF1F920F920FB683
:1007A0000F9211242F933F934F935F936F937F93F7
:1007B0008F939F93AF93BF93EF93FF93E0916E015D
:1007C000F0916F01309749F0A685B7858585968DA4
:1007D00091FF14C09C918923A1F4FF91EF91BF91E7
:1007E000AF919F918F917F916F915F914F913F91C9
:1007F0002F910F900FBE0F901F9018959C918923F9
:1008000061F7A389B4899C918589809589238C930C
:10081000868997890197F1F7608D718DA685B785D7
:10082000558538E020E0CB010197F1F7822F90E069
:1008300095958795282F4C91452309F020683150D4
:1008400091F7868D81FD209580916D0190E0019654
:100850008F73992730916C01381799F0A0916D0131
:10086000B0E0A45DBE4F2C9380936D01828D938D7B
:100870000197F1F7A389B4898C919589892B8C9381
:10088000ACCF868D8160868FF1CF10927D01109262
:100890007C0188EE93E0A0E0B0E080937E0190932D
:1008A0007F01A0938001B093810126E031E0309375
:1008B0007B0120937A0125EC30E03093870120936F
:1008C000860124EC30E0309389012093880120ECEC
:1008D00030E030938B0120938A0121EC30E030939B
:1008E0008D0120938C0122EC30E030938F01209316
:1008F0008E0126EC30E0309391012093900110920C
:100900009301109294011092950110929601109209
:100910001A021092190280931B0290931C02A0935A
:100920001D02B0931E0288E191E09093180280931B
:10093000170210922E0210922D0210923002109285
:100940002F02109232021092310210923402109251
:100950003302609135026E7F6D7F6093350266953C
:10096000617081E0682783E00E948D0061E083E090
:100970000E94D900E1EBF0E0E491E0932702EDE979
:10098000F0E0E491F0E0EE0FFF1FE057FF4F85919C
:100990009491909329028093280260E082E00E9463
:1009A000D9008091350281FD04C061E082E00E949F
:1009B0008D0082E080932302E0EBF0E0E491E0938D
:1009C0002402ECE9F0E0E491F0E0EE0FFF1FEA57BB
:1009D000FF4F85919491909326028093250208956C
:1009E000789484B5826084BD84B5816084BD85B50A
:1009F000826085BD85B5816085BD80916E00816016
:100A000080936E00109281008091810082608093BB
:100A100081008091810081608093810080918000BD
:100A20008160809380008091B10084608093B100E8
:100A30008091B00081608093B00080917A008460E2
:100A400080937A0080917A00826080937A0080910E
:100A50007A00816080937A0080917A008068809328
:100A60007A001092C10061E089E00E94D90061E043
:100A70008AE00E94D90061E085E00E94D90061E02F
:100A800086E00E94D90060E088E00E94D90061E021
:100A900089E00E94D90061E08CE00E94D900E091D9
:100AA0008A01F0918B0182E08083E0918601F091D0
:100AB00087011082E0918801F09189018FEC808399
:100AC00010929201E0918E01F0918F0186E0808377
:100AD000E0918C01F0918D01808180618083E091B3
:100AE0008C01F0918D01808188608083E0918C0180
:100AF000F0918D01808180688083E0918C01F0917C
:100B00008D0180818F7D808310923202109231029C
:100B10001092300210922F0210922E0210922D028B
:100B20008DE991E0909334028093330290912302F7
:100B3000963108F047C02DEB30E030932E02209321
:100B40002D022BE931E03093300220932F022CE26A
:100B500031E030933202209331022091680084E02A
:100B6000983048F031E09E3008F430E081E001C078
:100B7000880F3A95EAF7822B809368002DE630E0E3
:100B8000983050F02BE630E09E3030F02CE630E02C
:100B9000963110F030E020E030932B0220932A02AF
:100BA000292F30E0983008F090C081E001C0880F14
:100BB0009A95EAF780932C02809133029091340247
:100BC0000197F1F78091310290913202892B49F11E
:100BD000E0916E01F0916F0182E0E731F80709F1D1
:100BE000309739F0A389B4899C91858980958923B0
:100BF0008C93809135028E7F8093350210926D0127
:100C000010926C0187E192E090936F0180936E01E6
:100C1000E0912A02F0912B02808190912C02892B85
:100C2000808342E050E069E271E08AE791E00E944F
:100C300067010E94230380E0882E80E0982E4424E0
:100C40004A94512C06EE10E028ECE22EF12C34EB05
:100C5000C32ED12C4BE9A42EB12C87E192E00E9447
:100C6000E902892B69F087E192E00E94FF028093FC
:100C70007001682F8AE791E00E9407020E94230317
:100C8000C0917001C03371F5109201011092000102
:100C90006C2F8AE791E00E940702C63409F064C015
:100CA0006090000170900101B30185E00E940A018B
:100CB000B30189E00E940A0170E060E08AE00E94CE
:100CC0000A0170E060E086E087C09E3040F4285062
:100CD000310981E001C0880F2A95EAF76BCF2E50C9
:100CE0003109F7CFC43361F484E690E090930101B9
:100CF000809300016C2F8AE791E00E940702D3C025
:100D0000C63329F4B0920101A0920001F3CFC7339A
:100D100029F4D0920101C0920001ECCFC83329F42C
:100D2000F0920101E0920001E5CFC93329F410935C
:100D3000010100930001DECFC13729F45092010177
:100D400040920001D7CFC33509F0A2CF70E060E038
:100D500089E00E940A0170E060E08AE00E940A01D6
:100D600070E060E085E0ABCFC73479F460910001BA
:100D70007091010189E00E940A0170E060E08AE060
:100D80000E940A0164E670E0EDCFC93479F464E6AC
:100D900070E089E00E940A0170E060E08AE00E9451
:100DA0000A016091000170910101DCCFC23411F59C
:100DB00070E060E089E00E940A0170E060E085E098
:100DC0000E940A016090000170900101B30186E069
:100DD0000E940A01B3018AE00E940A018114910471
:100DE00009F43BCF0E94D101882309F436CF0E9439
:100DF000000033CFC834A1F470E060E089E00E94C5
:100E00000A0160910001709101018AE00E940A01CB
:100E100070E060E085E00E940A0164E670E053CF74
:100E2000CA34A1F470E060E089E00E940A0164E63F
:100E300070E08AE00E940A0170E060E085E00E94B4
:100E40000A0160910001709101013DCFC23579F432
:100E500070E060E089E00E940A01609000017090FB
:100E60000101B3018AE00E940A01B3017BCFCC34B7
:100E7000A1F46090000170900101B30189E00E942B
:100E80000A0170E060E08AE00E940A0170E060E020
:100E900085E00E940A01B30116CFC33509F456CF8D
:100EA00061E0C83521F060E0C83709F097CF8CE0E9
:100EB0000E948D0093CF88E191E090931802809377
:100EC000170280916E0190916F018751924071F4E9
:100ED000E0912A02F0912B02908180912C02809562
:100EE0008923808310926F0110926E010895EE0F96
:100EF000FF1F0590F491E02D099410E0C2E6D0E0C8
:100F000004C0FE010E9477072196C336D107C9F7B6
:040F1000F894FFCF83
:100F1400C800000000000702670194015402C501E3
:100F2400A301B701000000008D02670120038C02B9
:0C0F3400E902FF0274020D0A004F4B009E
:00000001FF
