:100000000C9462000C948A000C948A000C948A0070
:100010000C948A000C948A000C948A000C948A0038
:100020000C948A000C948A000C948A000C948A0028
:100030000C948A000C948A000C948A000C948A0018
:100040000C94F2020C948A000C9462030C943C030E
:100050000C948A000C948A000C948A000C948A00F8
:100060000C948A000C948A000000000024002700F1
:100070002A0000000000250028002B0000000000DE
:1000800023002600290004040404040404040202DA
:100090000202020203030303030301020408102007
:1000A0004080010204081020010204081020000012
:1000B0000008000201000003040700000000000027
:1000C0000000060511241FBECFEFD8E0DEBFCDBF74
:1000D00011E0A0E0B1E0E6E7FAE002C005900D9281
:1000E000AC31B107D9F721E0ACE1B1E001C01D921C
:1000F000AC3CB207E1F710E0C2E6D0E004C02197C3
:10010000FE010E943305C136D107C9F70E9494034E
:100110000C9439050C940000833081F028F4813070
:1001200099F08230A9F008958730A9F08830C9F09D
:100130008430B1F4809180008F7D03C08091800075
:100140008F7780938000089584B58F7784BD08955C
:1001500084B58F7DFBCF8091B0008F778093B00006
:1001600008958091B0008F7DF9CFCF93DF93282F32
:1001700030E0F901E255FF4F8491F901E656FF4F57
:10018000D491F901EA57FF4FC491CC23A1F081111A
:100190000E948C00EC2FF0E0EE0FFF1FE458FF4FA1
:1001A000A591B491EC91ED2381E090E009F480E019
:1001B000DF91CF91089580E090E0FACF1F93CF9325
:1001C000DF93282F30E0F901E255FF4F8491F901C8
:1001D000E656FF4FD491F901EA57FF4FC491CC2363
:1001E000A9F0162F81110E948C00EC2FF0E0EE0F89
:1001F000FF1FEE58FF4FA591B4918FB7F894EC9183
:10020000111108C0D095DE23DC938FBFDF91CF9111
:100210001F910895DE2BF8CFCF93DF9390E0FC0180
:10022000E656FF4F24918A579F4FFC018491882303
:10023000D1F090E0880F991FFC01E859FF4FA5917C
:10024000B491FC01EE58FF4FC591D49161110EC0DD
:100250009FB7F8948C91E22FE0958E238C932881A0
:10026000E223E8839FBFDF91CF9108958FB7F89481
:10027000EC91E22BEC938FBFF6CF1F93CF93DF93DC
:10028000182FEB0161E00E940C01209739F460E027
:10029000812FDF91CF911F910C94DE00E12FF0E0D0
:1002A000E255FF4FE491E33039F148F4E130B9F021
:1002B000E230E9F0C038D10554F361E0E9CFE7302E
:1002C00029F1E83059F1E430A9F78091800080628B
:1002D00080938000D0938B00C0938A0004C084B5C3
:1002E000806884BDC7BDDF91CF911F91089584B50B
:1002F000806284BDC8BDF7CF809180008068809304
:100300008000D0938900C0938800EDCF8091B00029
:1003100080688093B000C093B300E5CF8091B000B7
:1003200080628093B000C093B400DDCF3FB7F894F3
:100330008091C8019091C901A091CA01B091CB01EF
:1003400026B5A89B05C02F3F19F00196A11DB11D30
:100350003FBFBA2FA92F982F8827BC01CD01620F6C
:10036000711D811D911D42E0660F771F881F991F27
:100370004A95D1F70895AF92BF92CF92DF92EF9254
:10038000FF920F931F93CF93DF936C017B018B013F
:10039000040F151FEB015E01AE18BF08C017D1078F
:1003A00059F06991D601ED91FC910190F081E02D19
:1003B000C6010995892B79F7C501DF91CF911F916E
:1003C0000F91FF90EF90DF90CF90BF90AF90089586
:1003D000FC01538D448D252F30E0842F90E0821B4B
:1003E000930B541710F0CF96089501970895FC01D0
:1003F000918D828D981761F0A28DAE0FBF2FB11D28
:100400005D968C91928D9F5F9F73928F90E008957F
:100410008FEF9FEF0895FC01918D828D981731F039
:10042000828DE80FF11D858D90E008958FEF9FEF8D
:100430000895FC01918D228D892F90E0805C9F4F63
:10044000821B91098F73992708958CE191E00E9496
:10045000190221E0892B09F420E0822F089580E021
:1004600090E0892B29F00E94250281110C94000054
:100470000895FC01A48DA80FB92FB11DA35ABF4F39
:100480002C91848D90E001968F739927848FA68993
:10049000B7892C93A089B1898C91837080648C93E7
:1004A000938D848D981306C00288F389E02D808196
:1004B0008F7D80830895EF92FF920F931F93CF93C8
:1004C000DF93EC0181E0888F9B8D8C8D98131AC08F
:1004D000E889F989808185FF15C09FB7F894EE8976
:1004E000FF896083E889F9898081837080648083D3
:1004F0009FBF81E090E0DF91CF911F910F91FF901E
:10050000EF900895F62E0B8D10E00F5F1F4F0F73C5
:100510001127E02E8C8D8E110CC00FB607FCFACF80
:10052000E889F989808185FFF5CFCE010E943902E3
:10053000F1CFEB8DEC0FFD2FF11DE35AFF4FF08251
:100540009FB7F8940B8FEA89FB8980818062CFCFB7
:10055000CF93DF93EC01888D8823B9F0AA89BB89FA
:10056000E889F9898C9185FD03C0808186FD0DC0E5
:100570000FB607FCF7CF8C9185FFF2CF808185FF06
:10058000EDCFCE010E943902E9CFDF91CF910895DE
:1005900060E086E00E94DE0060E087E00E94DE000E
:1005A00060E088E00E94DE0060E089E00C94DE00FC
:1005B00066E970E085E00E943D0166E970E08AE04E
:1005C0000E943D0161E086E00E94DE0060E087E07D
:1005D0000E94DE0061E088E00E94DE0060E089E0C9
:1005E0000C94DE001F920F920FB60F9211242F93DE
:1005F0003F938F939F93AF93BF938091C40190914A
:10060000C501A091C601B091C7013091C30123E09B
:10061000230F2D3758F50196A11DB11D2093C3015D
:100620008093C4019093C501A093C601B093C70104
:100630008091C8019091C901A091CA01B091CB01EC
:100640000196A11DB11D8093C8019093C901A0938B
:10065000CA01B093CB01BF91AF919F918F913F9110
:100660002F910F900FBE0F901F90189526E8230F23
:100670000296A11DB11DD2CF1F920F920FB60F92FD
:1006800011242F933F934F935F936F937F938F9397
:100690009F93AF93BF93EF93FF938CE191E00E9400
:1006A0003902FF91EF91BF91AF919F918F917F910F
:1006B0006F915F914F913F912F910F900FBE0F90CF
:1006C0001F9018951F920F920FB60F9211242F931F
:1006D0008F939F93EF93FF93E0912C01F0912D0165
:1006E0008081E0913201F091330182FD1BC0908145
:1006F000809135018F5F8F7320913601821741F011
:10070000E0913501F0E0E45EFE4F958F8093350176
:10071000FF91EF919F918F912F910F900FBE0F90AE
:100720001F9018958081F4CF789484B5826084BD41
:1007300084B5816084BD85B5826085BD85B58160E5
:1007400085BD80916E00816080936E001092810063
:10075000809181008260809381008091810081601E
:1007600080938100809180008160809380008091DF
:10077000B10084608093B1008091B000816080936B
:10078000B00080917A00846080937A0080917A0032
:10079000826080937A0080917A00816080937A00F1
:1007A00080917A00806880937A001092C10061E0A5
:1007B00085E00E940C0161E086E00E940C0161E08E
:1007C00087E00E940C0161E08AE00E940C0161E078
:1007D00088E00E940C0161E089E00E940C010CE1BC
:1007E00011E0C2E1D1E08881229660E00E940C0114
:1007F0000C171D07C1F760E083E10E940C01E09136
:100800002C01F0912D0182E08083E0912801F0918C
:1008100029011082E0912A01F0912B018FEC808355
:1008200010923401E0913001F091310186E0808333
:10083000E0912E01F0912F01808180618083E09111
:100840002E01F0912F01808188608083E0912E013C
:10085000F0912F01808180688083E0912E01F091DA
:100860002F0180818F7D808300E010E099EBC92EFD
:1008700091E0D92E560122E1E22E21E0F22ED7019D
:100880008C91B2E0EB0EF11C0E94B500F501819352
:1008900091935F01EC16FD0691F784E090E0F0E0A3
:1008A000E0E0D6012D913D916D01082E02C0220F8E
:1008B000331F0A94E2F7E22BF32B019790F731975D
:1008C000EF31F10508F09FC0E859FB4F0C94330558
:1008D000EF04E704EF0487040305E7040305C004FD
:1008E000030503050305C004030503050305CC0444
:1008F0000305030503050305030503050305CC04F0
:1009000003050305030503050305030587040E948A
:10091000D80283E10E94B500892B11F40E94C8021D
:100920000E9496014B015C0184E1C82ED12CE12C80
:10093000F12C0E949601681979098A099B09683E81
:10094000734081059105A8F3E1E0CE1AD108E108D2
:10095000F108F8EE8F0EF3E09F1EA11CB11CC1142C
:10096000D104E104F10429F70115110509F47ECF42
:100970000E942502882309F479CF0E94000076CFD7
:1009800064E670E085E00E943D0166E970E08AE07F
:100990000E943D0161E00BC070E060E085E00E94D4
:1009A0003D0166E970E08AE00E943D0160E086E07A
:1009B0000E94DE0060E087E00E94DE0061E088E0E7
:1009C0000E94DE0060E089E00E94DE00A2CF66E9BE
:1009D00070E085E00E943D0164E670E0D8CF66E9F2
:1009E00070E085E00E943D0170E060E08AE00E94D6
:1009F0003D0161E086E00E94DE0060E087E00E9449
:100A0000DE0060E0DCCF0E94C80283CFECE1F1E0C1
:100A10001382128288EE93E0A0E0B0E08483958395
:100A2000A683B78384E091E09183808385EC90E096
:100A30009587848784EC90E09787868780EC90E0A8
:100A4000918B808B81EC90E0938B828B82EC90E099
:100A5000958B848B86EC90E0978B868B118E128E13
:100A6000138E148E0895EE0FFF1F0590F491E02D64
:060A70000994F894FFCF89
:100A7600000000005B02BB01E801A8021902F701B1
:0C0A86000B020E000F0010001100120007
:00000001FF
